{
  "_format": "hh-sol-artifact-1",
  "contractName": "CounterContract",
  "sourceName": "contracts/CounterContract.sol",
  "abi": [
    {
      "inputs": [],
      "stateMutability": "nonpayable",
      "type": "constructor"
    },
    {
      "anonymous": false,
      "inputs": [
        {
          "indexed": true,
          "internalType": "address",
          "name": "user",
          "type": "address"
        },
        {
          "indexed": false,
          "internalType": "uint256",
          "name": "counter",
          "type": "uint256"
        },
        {
          "indexed": false,
          "internalType": "uint256",
          "name": "timestamp",
          "type": "uint256"
        }
      ],
      "name": "CounterDecremented",
      "type": "event"
    },
    {
      "anonymous": false,
      "inputs": [
        {
          "indexed": true,
          "internalType": "address",
          "name": "user",
          "type": "address"
        },
        {
          "indexed": false,
          "internalType": "uint256",
          "name": "counter",
          "type": "uint256"
        },
        {
          "indexed": false,
          "internalType": "uint256",
          "name": "timestamp",
          "type": "uint256"
        }
      ],
      "name": "CounterIncremented",
      "type": "event"
    },
    {
      "inputs": [],
      "name": "counter",
      "outputs": [
        {
          "internalType": "uint256",
          "name": "",
          "type": "uint256"
        }
      ],
      "stateMutability": "view",
      "type": "function"
    },
    {
      "inputs": [],
      "name": "decrement",
      "outputs": [],
      "stateMutability": "nonpayable",
      "type": "function"
    },
    {
      "inputs": [],
      "name": "increment",
      "outputs": [],
      "stateMutability": "nonpayable",
      "type": "function"
    }
  ],
  "bytecode": "0x608060405234801561001057600080fd5b506001600081905550610349806100286000396000f3fe608060405234801561001057600080fd5b50600436106100415760003560e01c80632baeceb71461004657806361bc221a14610050578063d09de08a1461006e575b600080fd5b61004e610078565b005b610058610128565b60405161006591906101b2565b60405180910390f35b61007661012e565b005b6001600054036100bd576040517f08c379a00000000000000000000000000000000000000000000000000000000081526004016100b49061022a565b60405180910390fd5b6000808154809291906100cf90610279565b91905055503373ffffffffffffffffffffffffffffffffffffffff167f9bb01462f09d9cfcea3420f708d93273f6249dabf20f3297880ed1ce9f9d47d76000544260405161011e9291906102a2565b60405180910390a2565b60005481565b600080815480929190610140906102cb565b91905055503373ffffffffffffffffffffffffffffffffffffffff167f28884a5c2be2a20897b0d0e22457dbee83e74ff19dad34b1937893a98f83f9546000544260405161018f9291906102a2565b60405180910390a2565b6000819050919050565b6101ac81610199565b82525050565b60006020820190506101c760008301846101a3565b92915050565b600082825260208201905092915050565b7f43616e6e6f742064656372656d656e7420667572746865722121210000000000600082015250565b6000610214601b836101cd565b915061021f826101de565b602082019050919050565b6000602082019050818103600083015261024381610207565b9050919050565b7f4e487b7100000000000000000000000000000000000000000000000000000000600052601160045260246000fd5b600061028482610199565b9150600082036102975761029661024a565b5b600182039050919050565b60006040820190506102b760008301856101a3565b6102c460208301846101a3565b9392505050565b60006102d682610199565b91507fffffffffffffffffffffffffffffffffffffffffffffffffffffffffffffffff82036103085761030761024a565b5b60018201905091905056fea26469706673582212202c69b58780199229d74ac539b12146253e8cb4cce1d1fc94b408fbc2d9efc4a364736f6c63430008180033",
  "linkReferences": {},
  "deployedLinkReferences": {}
}