{
  "_format": "hh-sol-artifact-1",
  "contractName": "CounterContract",
  "sourceName": "contracts/CounterContract.sol",
  "abi": [
    {
      "inputs": [],
      "stateMutability": "nonpayable",
      "type": "constructor"
    },
    {
      "inputs": [],
      "name": "counter",
      "outputs": [
        {
          "internalType": "uint256",
          "name": "",
          "type": "uint256"
        }
      ],
      "stateMutability": "view",
      "type": "function"
    },
    {
      "inputs": [],
      "name": "decrement",
      "outputs": [],
      "stateMutability": "nonpayable",
      "type": "function"
    },
    {
      "inputs": [],
      "name": "increment",
      "outputs": [],
      "stateMutability": "nonpayable",
      "type": "function"
    }
  ],
  "bytecode": "0x608060405234801561001057600080fd5b50600160008190555061027c806100286000396000f3fe608060405234801561001057600080fd5b50600436106100415760003560e01c80632baeceb71461004657806361bc221a14610050578063d09de08a1461006e575b600080fd5b61004e610078565b005b6100586100d6565b604051610065919061010e565b60405180910390f35b6100766100dc565b005b6001600054036100bd576040517f08c379a00000000000000000000000000000000000000000000000000000000081526004016100b490610186565b60405180910390fd5b6000808154809291906100cf906101d5565b9190505550565b60005481565b6000808154809291906100ee906101fe565b9190505550565b6000819050919050565b610108816100f5565b82525050565b600060208201905061012360008301846100ff565b92915050565b600082825260208201905092915050565b7f43616e6e6f742064656372656d656e7420667572746865722121210000000000600082015250565b6000610170601b83610129565b915061017b8261013a565b602082019050919050565b6000602082019050818103600083015261019f81610163565b9050919050565b7f4e487b7100000000000000000000000000000000000000000000000000000000600052601160045260246000fd5b60006101e0826100f5565b9150600082036101f3576101f26101a6565b5b600182039050919050565b6000610209826100f5565b91507fffffffffffffffffffffffffffffffffffffffffffffffffffffffffffffffff820361023b5761023a6101a6565b5b60018201905091905056fea2646970667358221220d6872999c40a9c1e9472e9eafba64d0806734648a6096c97e2f6a96f1f4e0cef64736f6c63430008180033",
  "linkReferences": {},
  "deployedLinkReferences": {}
}